{
  "contractName": "TestToken",
  "abi": [
    {
      "inputs": [],
      "stateMutability": "nonpayable",
      "type": "constructor"
    },
    {
      "anonymous": false,
      "inputs": [
        {
          "indexed": true,
          "internalType": "address",
          "name": "owner",
          "type": "address"
        },
        {
          "indexed": true,
          "internalType": "address",
          "name": "spender",
          "type": "address"
        },
        {
          "indexed": false,
          "internalType": "uint256",
          "name": "value",
          "type": "uint256"
        }
      ],
      "name": "Approval",
      "type": "event"
    },
    {
      "anonymous": false,
      "inputs": [
        {
          "indexed": true,
          "internalType": "address",
          "name": "from",
          "type": "address"
        },
        {
          "indexed": true,
          "internalType": "address",
          "name": "to",
          "type": "address"
        },
        {
          "indexed": false,
          "internalType": "uint256",
          "name": "value",
          "type": "uint256"
        }
      ],
      "name": "Transfer",
      "type": "event"
    },
    {
      "inputs": [
        {
          "internalType": "address",
          "name": "owner",
          "type": "address"
        },
        {
          "internalType": "address",
          "name": "spender",
          "type": "address"
        }
      ],
      "name": "allowance",
      "outputs": [
        {
          "internalType": "uint256",
          "name": "",
          "type": "uint256"
        }
      ],
      "stateMutability": "view",
      "type": "function",
      "constant": true
    },
    {
      "inputs": [
        {
          "internalType": "address",
          "name": "spender",
          "type": "address"
        },
        {
          "internalType": "uint256",
          "name": "amount",
          "type": "uint256"
        }
      ],
      "name": "approve",
      "outputs": [
        {
          "internalType": "bool",
          "name": "",
          "type": "bool"
        }
      ],
      "stateMutability": "nonpayable",
      "type": "function"
    },
    {
      "inputs": [
        {
          "internalType": "address",
          "name": "account",
          "type": "address"
        }
      ],
      "name": "balanceOf",
      "outputs": [
        {
          "internalType": "uint256",
          "name": "",
          "type": "uint256"
        }
      ],
      "stateMutability": "view",
      "type": "function",
      "constant": true
    },
    {
      "inputs": [],
      "name": "decimals",
      "outputs": [
        {
          "internalType": "uint8",
          "name": "",
          "type": "uint8"
        }
      ],
      "stateMutability": "view",
      "type": "function",
      "constant": true
    },
    {
      "inputs": [
        {
          "internalType": "address",
          "name": "spender",
          "type": "address"
        },
        {
          "internalType": "uint256",
          "name": "subtractedValue",
          "type": "uint256"
        }
      ],
      "name": "decreaseAllowance",
      "outputs": [
        {
          "internalType": "bool",
          "name": "",
          "type": "bool"
        }
      ],
      "stateMutability": "nonpayable",
      "type": "function"
    },
    {
      "inputs": [
        {
          "internalType": "address",
          "name": "spender",
          "type": "address"
        },
        {
          "internalType": "uint256",
          "name": "addedValue",
          "type": "uint256"
        }
      ],
      "name": "increaseAllowance",
      "outputs": [
        {
          "internalType": "bool",
          "name": "",
          "type": "bool"
        }
      ],
      "stateMutability": "nonpayable",
      "type": "function"
    },
    {
      "inputs": [],
      "name": "name",
      "outputs": [
        {
          "internalType": "string",
          "name": "",
          "type": "string"
        }
      ],
      "stateMutability": "view",
      "type": "function",
      "constant": true
    },
    {
      "inputs": [],
      "name": "owner",
      "outputs": [
        {
          "internalType": "address payable",
          "name": "",
          "type": "address"
        }
      ],
      "stateMutability": "view",
      "type": "function",
      "constant": true
    },
    {
      "inputs": [],
      "name": "symbol",
      "outputs": [
        {
          "internalType": "string",
          "name": "",
          "type": "string"
        }
      ],
      "stateMutability": "view",
      "type": "function",
      "constant": true
    },
    {
      "inputs": [],
      "name": "totalSupply",
      "outputs": [
        {
          "internalType": "uint256",
          "name": "",
          "type": "uint256"
        }
      ],
      "stateMutability": "view",
      "type": "function",
      "constant": true
    },
    {
      "inputs": [
        {
          "internalType": "address",
          "name": "to",
          "type": "address"
        },
        {
          "internalType": "uint256",
          "name": "amount",
          "type": "uint256"
        }
      ],
      "name": "transfer",
      "outputs": [
        {
          "internalType": "bool",
          "name": "",
          "type": "bool"
        }
      ],
      "stateMutability": "nonpayable",
      "type": "function"
    },
    {
      "inputs": [
        {
          "internalType": "address",
          "name": "from",
          "type": "address"
        },
        {
          "internalType": "address",
          "name": "to",
          "type": "address"
        },
        {
          "internalType": "uint256",
          "name": "amount",
          "type": "uint256"
        }
      ],
      "name": "transferFrom",
      "outputs": [
        {
          "internalType": "bool",
          "name": "",
          "type": "bool"
        }
      ],
      "stateMutability": "nonpayable",
      "type": "function"
    },
    {
      "inputs": [],
      "name": "mintCommon",
      "outputs": [],
      "stateMutability": "nonpayable",
      "type": "function"
    },
    {
      "inputs": [],
      "name": "destroy",
      "outputs": [],
      "stateMutability": "nonpayable",
      "type": "function"
    }
  ],
  "bytecode": "0x60806040523480156200001157600080fd5b506040518060400160405280600981526020017f54657374546f6b656e00000000000000000000000000000000000000000000008152506040518060400160405280600281526020017f5454000000000000000000000000000000000000000000000000000000000000815250816003908051906020019062000096929190620002b7565b508060049080519060200190620000af929190620002b7565b50505033600560006101000a81548173ffffffffffffffffffffffffffffffffffffffff021916908373ffffffffffffffffffffffffffffffffffffffff1602179055506200013133620001086200013760201b60201c565b600a62000116919062000501565b6103e862000125919062000552565b6200014060201b60201c565b62000725565b60006012905090565b600073ffffffffffffffffffffffffffffffffffffffff168273ffffffffffffffffffffffffffffffffffffffff1603620001b2576040517f08c379a0000000000000000000000000000000000000000000000000000000008152600401620001a99062000614565b60405180910390fd5b620001c660008383620002ad60201b60201c565b8060026000828254620001da919062000636565b92505081905550806000808473ffffffffffffffffffffffffffffffffffffffff1673ffffffffffffffffffffffffffffffffffffffff168152602001908152602001600020600082825401925050819055508173ffffffffffffffffffffffffffffffffffffffff16600073ffffffffffffffffffffffffffffffffffffffff167fddf252ad1be2c89b69c2b068fc378daa952ba7f163c4a11628f55a4df523b3ef836040516200028d9190620006a4565b60405180910390a3620002a960008383620002b260201b60201c565b5050565b505050565b505050565b828054620002c590620006f0565b90600052602060002090601f016020900481019282620002e9576000855562000335565b82601f106200030457805160ff191683800117855562000335565b8280016001018555821562000335579182015b828111156200033457825182559160200191906001019062000317565b5b50905062000344919062000348565b5090565b5b808211156200036357600081600090555060010162000349565b5090565b7f4e487b7100000000000000000000000000000000000000000000000000000000600052601160045260246000fd5b60008160011c9050919050565b6000808291508390505b6001851115620003f557808604811115620003cd57620003cc62000367565b5b6001851615620003dd5780820291505b8081029050620003ed8562000396565b9450620003ad565b94509492505050565b600082620004105760019050620004e3565b81620004205760009050620004e3565b816001811462000439576002811462000444576200047a565b6001915050620004e3565b60ff84111562000459576200045862000367565b5b8360020a91508482111562000473576200047262000367565b5b50620004e3565b5060208310610133831016604e8410600b8410161715620004b45782820a905083811115620004ae57620004ad62000367565b5b620004e3565b620004c38484846001620003a3565b92509050818404811115620004dd57620004dc62000367565b5b81810290505b9392505050565b6000819050919050565b600060ff82169050919050565b60006200050e82620004ea565b91506200051b83620004f4565b92506200054a7fffffffffffffffffffffffffffffffffffffffffffffffffffffffffffffffff8484620003fe565b905092915050565b60006200055f82620004ea565b91506200056c83620004ea565b9250817fffffffffffffffffffffffffffffffffffffffffffffffffffffffffffffffff0483118215151615620005a857620005a762000367565b5b828202905092915050565b600082825260208201905092915050565b7f45524332303a206d696e7420746f20746865207a65726f206164647265737300600082015250565b6000620005fc601f83620005b3565b91506200060982620005c4565b602082019050919050565b600060208201905081810360008301526200062f81620005ed565b9050919050565b60006200064382620004ea565b91506200065083620004ea565b9250827fffffffffffffffffffffffffffffffffffffffffffffffffffffffffffffffff0382111562000688576200068762000367565b5b828201905092915050565b6200069e81620004ea565b82525050565b6000602082019050620006bb600083018462000693565b92915050565b7f4e487b7100000000000000000000000000000000000000000000000000000000600052602260045260246000fd5b600060028204905060018216806200070957607f821691505b6020821081036200071f576200071e620006c1565b5b50919050565b61178980620007356000396000f3fe608060405234801561001057600080fd5b50600436106100ea5760003560e01c806383197ef01161008c57806395d89b411161006657806395d89b411461023b578063a457c2d714610259578063a9059cbb14610289578063dd62ed3e146102b9576100ea565b806383197ef014610209578063873b036a146102135780638da5cb5b1461021d576100ea565b806323b872dd116100c857806323b872dd1461015b578063313ce5671461018b57806339509351146101a957806370a08231146101d9576100ea565b806306fdde03146100ef578063095ea7b31461010d57806318160ddd1461013d575b600080fd5b6100f76102e9565b6040516101049190610dc4565b60405180910390f35b61012760048036038101906101229190610e7f565b61037b565b6040516101349190610eda565b60405180910390f35b61014561039e565b6040516101529190610f04565b60405180910390f35b61017560048036038101906101709190610f1f565b6103a8565b6040516101829190610eda565b60405180910390f35b6101936103d7565b6040516101a09190610f8e565b60405180910390f35b6101c360048036038101906101be9190610e7f565b6103e0565b6040516101d09190610eda565b60405180910390f35b6101f360048036038101906101ee9190610fa9565b610417565b6040516102009190610f04565b60405180910390f35b61021161045f565b005b61021b6104f4565b005b61022561051f565b6040516102329190610ff7565b60405180910390f35b610243610545565b6040516102509190610dc4565b60405180910390f35b610273600480360381019061026e9190610e7f565b6105d7565b6040516102809190610eda565b60405180910390f35b6102a3600480360381019061029e9190610e7f565b61064e565b6040516102b09190610eda565b60405180910390f35b6102d360048036038101906102ce9190611012565b610671565b6040516102e09190610f04565b60405180910390f35b6060600380546102f890611081565b80601f016020809104026020016040519081016040528092919081815260200182805461032490611081565b80156103715780601f1061034657610100808354040283529160200191610371565b820191906000526020600020905b81548152906001019060200180831161035457829003601f168201915b5050505050905090565b6000806103866106f8565b9050610393818585610700565b600191505092915050565b6000600254905090565b6000806103b36106f8565b90506103c08582856108c9565b6103cb858585610955565b60019150509392505050565b60006012905090565b6000806103eb6106f8565b905061040c8185856103fd8589610671565b61040791906110e1565b610700565b600191505092915050565b60008060008373ffffffffffffffffffffffffffffffffffffffff1673ffffffffffffffffffffffffffffffffffffffff168152602001908152602001600020549050919050565b600560009054906101000a900473ffffffffffffffffffffffffffffffffffffffff1673ffffffffffffffffffffffffffffffffffffffff163373ffffffffffffffffffffffffffffffffffffffff16146104b957600080fd5b600560009054906101000a900473ffffffffffffffffffffffffffffffffffffffff1673ffffffffffffffffffffffffffffffffffffffff16ff5b61051d336105006103d7565b600a61050c919061126a565b601461051891906112b5565b610bcb565b565b600560009054906101000a900473ffffffffffffffffffffffffffffffffffffffff1681565b60606004805461055490611081565b80601f016020809104026020016040519081016040528092919081815260200182805461058090611081565b80156105cd5780601f106105a2576101008083540402835291602001916105cd565b820191906000526020600020905b8154815290600101906020018083116105b057829003601f168201915b5050505050905090565b6000806105e26106f8565b905060006105f08286610671565b905083811015610635576040517f08c379a000000000000000000000000000000000000000000000000000000000815260040161062c90611381565b60405180910390fd5b6106428286868403610700565b60019250505092915050565b6000806106596106f8565b9050610666818585610955565b600191505092915050565b6000600160008473ffffffffffffffffffffffffffffffffffffffff1673ffffffffffffffffffffffffffffffffffffffff16815260200190815260200160002060008373ffffffffffffffffffffffffffffffffffffffff1673ffffffffffffffffffffffffffffffffffffffff16815260200190815260200160002054905092915050565b600033905090565b600073ffffffffffffffffffffffffffffffffffffffff168373ffffffffffffffffffffffffffffffffffffffff160361076f576040517f08c379a000000000000000000000000000000000000000000000000000000000815260040161076690611413565b60405180910390fd5b600073ffffffffffffffffffffffffffffffffffffffff168273ffffffffffffffffffffffffffffffffffffffff16036107de576040517f08c379a00000000000000000000000000000000000000000000000000000000081526004016107d5906114a5565b60405180910390fd5b80600160008573ffffffffffffffffffffffffffffffffffffffff1673ffffffffffffffffffffffffffffffffffffffff16815260200190815260200160002060008473ffffffffffffffffffffffffffffffffffffffff1673ffffffffffffffffffffffffffffffffffffffff168152602001908152602001600020819055508173ffffffffffffffffffffffffffffffffffffffff168373ffffffffffffffffffffffffffffffffffffffff167f8c5be1e5ebec7d5bd14f71427d1e84f3dd0314c0f7b2291e5b200ac8c7c3b925836040516108bc9190610f04565b60405180910390a3505050565b60006108d58484610671565b90507fffffffffffffffffffffffffffffffffffffffffffffffffffffffffffffffff811461094f5781811015610941576040517f08c379a000000000000000000000000000000000000000000000000000000000815260040161093890611511565b60405180910390fd5b61094e8484848403610700565b5b50505050565b600073ffffffffffffffffffffffffffffffffffffffff168373ffffffffffffffffffffffffffffffffffffffff16036109c4576040517f08c379a00000000000000000000000000000000000000000000000000000000081526004016109bb906115a3565b60405180910390fd5b600073ffffffffffffffffffffffffffffffffffffffff168273ffffffffffffffffffffffffffffffffffffffff1603610a33576040517f08c379a0000000000000000000000000000000000000000000000000000000008152600401610a2a90611635565b60405180910390fd5b610a3e838383610d21565b60008060008573ffffffffffffffffffffffffffffffffffffffff1673ffffffffffffffffffffffffffffffffffffffff16815260200190815260200160002054905081811015610ac4576040517f08c379a0000000000000000000000000000000000000000000000000000000008152600401610abb906116c7565b60405180910390fd5b8181036000808673ffffffffffffffffffffffffffffffffffffffff1673ffffffffffffffffffffffffffffffffffffffff16815260200190815260200160002081905550816000808573ffffffffffffffffffffffffffffffffffffffff1673ffffffffffffffffffffffffffffffffffffffff168152602001908152602001600020600082825401925050819055508273ffffffffffffffffffffffffffffffffffffffff168473ffffffffffffffffffffffffffffffffffffffff167fddf252ad1be2c89b69c2b068fc378daa952ba7f163c4a11628f55a4df523b3ef84604051610bb29190610f04565b60405180910390a3610bc5848484610d26565b50505050565b600073ffffffffffffffffffffffffffffffffffffffff168273ffffffffffffffffffffffffffffffffffffffff1603610c3a576040517f08c379a0000000000000000000000000000000000000000000000000000000008152600401610c3190611733565b60405180910390fd5b610c4660008383610d21565b8060026000828254610c5891906110e1565b92505081905550806000808473ffffffffffffffffffffffffffffffffffffffff1673ffffffffffffffffffffffffffffffffffffffff168152602001908152602001600020600082825401925050819055508173ffffffffffffffffffffffffffffffffffffffff16600073ffffffffffffffffffffffffffffffffffffffff167fddf252ad1be2c89b69c2b068fc378daa952ba7f163c4a11628f55a4df523b3ef83604051610d099190610f04565b60405180910390a3610d1d60008383610d26565b5050565b505050565b505050565b600081519050919050565b600082825260208201905092915050565b60005b83811015610d65578082015181840152602081019050610d4a565b83811115610d74576000848401525b50505050565b6000601f19601f8301169050919050565b6000610d9682610d2b565b610da08185610d36565b9350610db0818560208601610d47565b610db981610d7a565b840191505092915050565b60006020820190508181036000830152610dde8184610d8b565b905092915050565b600080fd5b600073ffffffffffffffffffffffffffffffffffffffff82169050919050565b6000610e1682610deb565b9050919050565b610e2681610e0b565b8114610e3157600080fd5b50565b600081359050610e4381610e1d565b92915050565b6000819050919050565b610e5c81610e49565b8114610e6757600080fd5b50565b600081359050610e7981610e53565b92915050565b60008060408385031215610e9657610e95610de6565b5b6000610ea485828601610e34565b9250506020610eb585828601610e6a565b9150509250929050565b60008115159050919050565b610ed481610ebf565b82525050565b6000602082019050610eef6000830184610ecb565b92915050565b610efe81610e49565b82525050565b6000602082019050610f196000830184610ef5565b92915050565b600080600060608486031215610f3857610f37610de6565b5b6000610f4686828701610e34565b9350506020610f5786828701610e34565b9250506040610f6886828701610e6a565b9150509250925092565b600060ff82169050919050565b610f8881610f72565b82525050565b6000602082019050610fa36000830184610f7f565b92915050565b600060208284031215610fbf57610fbe610de6565b5b6000610fcd84828501610e34565b91505092915050565b6000610fe182610deb565b9050919050565b610ff181610fd6565b82525050565b600060208201905061100c6000830184610fe8565b92915050565b6000806040838503121561102957611028610de6565b5b600061103785828601610e34565b925050602061104885828601610e34565b9150509250929050565b7f4e487b7100000000000000000000000000000000000000000000000000000000600052602260045260246000fd5b6000600282049050600182168061109957607f821691505b6020821081036110ac576110ab611052565b5b50919050565b7f4e487b7100000000000000000000000000000000000000000000000000000000600052601160045260246000fd5b60006110ec82610e49565b91506110f783610e49565b9250827fffffffffffffffffffffffffffffffffffffffffffffffffffffffffffffffff0382111561112c5761112b6110b2565b5b828201905092915050565b60008160011c9050919050565b6000808291508390505b600185111561118e5780860481111561116a576111696110b2565b5b60018516156111795780820291505b808102905061118785611137565b945061114e565b94509492505050565b6000826111a75760019050611263565b816111b55760009050611263565b81600181146111cb57600281146111d557611204565b6001915050611263565b60ff8411156111e7576111e66110b2565b5b8360020a9150848211156111fe576111fd6110b2565b5b50611263565b5060208310610133831016604e8410600b84101617156112395782820a905083811115611234576112336110b2565b5b611263565b6112468484846001611144565b9250905081840481111561125d5761125c6110b2565b5b81810290505b9392505050565b600061127582610e49565b915061128083610f72565b92506112ad7fffffffffffffffffffffffffffffffffffffffffffffffffffffffffffffffff8484611197565b905092915050565b60006112c082610e49565b91506112cb83610e49565b9250817fffffffffffffffffffffffffffffffffffffffffffffffffffffffffffffffff0483118215151615611304576113036110b2565b5b828202905092915050565b7f45524332303a2064656372656173656420616c6c6f77616e63652062656c6f7760008201527f207a65726f000000000000000000000000000000000000000000000000000000602082015250565b600061136b602583610d36565b91506113768261130f565b604082019050919050565b6000602082019050818103600083015261139a8161135e565b9050919050565b7f45524332303a20617070726f76652066726f6d20746865207a65726f2061646460008201527f7265737300000000000000000000000000000000000000000000000000000000602082015250565b60006113fd602483610d36565b9150611408826113a1565b604082019050919050565b6000602082019050818103600083015261142c816113f0565b9050919050565b7f45524332303a20617070726f766520746f20746865207a65726f20616464726560008201527f7373000000000000000000000000000000000000000000000000000000000000602082015250565b600061148f602283610d36565b915061149a82611433565b604082019050919050565b600060208201905081810360008301526114be81611482565b9050919050565b7f45524332303a20696e73756666696369656e7420616c6c6f77616e6365000000600082015250565b60006114fb601d83610d36565b9150611506826114c5565b602082019050919050565b6000602082019050818103600083015261152a816114ee565b9050919050565b7f45524332303a207472616e736665722066726f6d20746865207a65726f20616460008201527f6472657373000000000000000000000000000000000000000000000000000000602082015250565b600061158d602583610d36565b915061159882611531565b604082019050919050565b600060208201905081810360008301526115bc81611580565b9050919050565b7f45524332303a207472616e7366657220746f20746865207a65726f206164647260008201527f6573730000000000000000000000000000000000000000000000000000000000602082015250565b600061161f602383610d36565b915061162a826115c3565b604082019050919050565b6000602082019050818103600083015261164e81611612565b9050919050565b7f45524332303a207472616e7366657220616d6f756e742065786365656473206260008201527f616c616e63650000000000000000000000000000000000000000000000000000602082015250565b60006116b1602683610d36565b91506116bc82611655565b604082019050919050565b600060208201905081810360008301526116e0816116a4565b9050919050565b7f45524332303a206d696e7420746f20746865207a65726f206164647265737300600082015250565b600061171d601f83610d36565b9150611728826116e7565b602082019050919050565b6000602082019050818103600083015261174c81611710565b905091905056fea26469706673582212201efc1e370d5b62c493448fc5d1ea1995d6e703aaa8887ca81c98f257d133626b64736f6c634300080e0033",
  "immutableReferences": {},
  "source": "// SPDX-License-Identifier: MIT\r\npragma solidity ^0.8.0;\r\nimport \"../node_modules/@openzeppelin/contracts/token/ERC20/ERC20.sol\";\r\n\r\ncontract TestToken is ERC20(\"TestToken\", \"TT\"){\r\n    address payable public owner;\r\n    constructor(){\r\n        owner= payable(msg.sender);\r\n        _mint(msg.sender, 1000 * (10 ** decimals()));\r\n    }\r\n    modifier onlyOwner{\r\n        require(msg.sender== owner);\r\n        _;\r\n    }\r\n    function mintCommon() public{\r\n        _mint(msg.sender, 20 * (10 ** decimals()));\r\n    }\r\n    function destroy() public onlyOwner{\r\n        selfdestruct(owner);\r\n    }\r\n}\r\n\r\n// ganshe:0x9EBf23b72a16805a526D511410c68a788661Df28",
  "sourcePath": "D:\\TestToken\\truffle\\contracts\\TestToken.sol",
  "compiler": {
    "name": "solc",
    "version": "0.8.14+commit.80d49f37.Emscripten.clang"
  },
  "schemaVersion": "3.4.11",
  "updatedAt": "2022-11-27T17:30:50.295Z",
  "networkType": "ethereum",
  "devdoc": {
    "kind": "dev",
    "methods": {
      "allowance(address,address)": {
        "details": "See {IERC20-allowance}."
      },
      "approve(address,uint256)": {
        "details": "See {IERC20-approve}. NOTE: If `amount` is the maximum `uint256`, the allowance is not updated on `transferFrom`. This is semantically equivalent to an infinite approval. Requirements: - `spender` cannot be the zero address."
      },
      "balanceOf(address)": {
        "details": "See {IERC20-balanceOf}."
      },
      "decimals()": {
        "details": "Returns the number of decimals used to get its user representation. For example, if `decimals` equals `2`, a balance of `505` tokens should be displayed to a user as `5.05` (`505 / 10 ** 2`). Tokens usually opt for a value of 18, imitating the relationship between Ether and Wei. This is the value {ERC20} uses, unless this function is overridden; NOTE: This information is only used for _display_ purposes: it in no way affects any of the arithmetic of the contract, including {IERC20-balanceOf} and {IERC20-transfer}."
      },
      "decreaseAllowance(address,uint256)": {
        "details": "Atomically decreases the allowance granted to `spender` by the caller. This is an alternative to {approve} that can be used as a mitigation for problems described in {IERC20-approve}. Emits an {Approval} event indicating the updated allowance. Requirements: - `spender` cannot be the zero address. - `spender` must have allowance for the caller of at least `subtractedValue`."
      },
      "increaseAllowance(address,uint256)": {
        "details": "Atomically increases the allowance granted to `spender` by the caller. This is an alternative to {approve} that can be used as a mitigation for problems described in {IERC20-approve}. Emits an {Approval} event indicating the updated allowance. Requirements: - `spender` cannot be the zero address."
      },
      "name()": {
        "details": "Returns the name of the token."
      },
      "symbol()": {
        "details": "Returns the symbol of the token, usually a shorter version of the name."
      },
      "totalSupply()": {
        "details": "See {IERC20-totalSupply}."
      },
      "transfer(address,uint256)": {
        "details": "See {IERC20-transfer}. Requirements: - `to` cannot be the zero address. - the caller must have a balance of at least `amount`."
      },
      "transferFrom(address,address,uint256)": {
        "details": "See {IERC20-transferFrom}. Emits an {Approval} event indicating the updated allowance. This is not required by the EIP. See the note at the beginning of {ERC20}. NOTE: Does not update the allowance if the current allowance is the maximum `uint256`. Requirements: - `from` and `to` cannot be the zero address. - `from` must have a balance of at least `amount`. - the caller must have allowance for ``from``'s tokens of at least `amount`."
      }
    },
    "version": 1
  },
  "userdoc": {
    "kind": "user",
    "methods": {},
    "version": 1
  }
}