{
  "contractName": "TransactionReciept",
  "abi": [
    {
      "inputs": [],
      "name": "BlockHash",
      "outputs": [
        {
          "internalType": "string",
          "name": "",
          "type": "string"
        }
      ],
      "stateMutability": "view",
      "type": "function",
      "constant": true
    },
    {
      "inputs": [],
      "name": "BlockNumber",
      "outputs": [
        {
          "internalType": "string",
          "name": "",
          "type": "string"
        }
      ],
      "stateMutability": "view",
      "type": "function",
      "constant": true
    },
    {
      "inputs": [],
      "name": "ContractAddress",
      "outputs": [
        {
          "internalType": "string",
          "name": "",
          "type": "string"
        }
      ],
      "stateMutability": "view",
      "type": "function",
      "constant": true
    },
    {
      "inputs": [],
      "name": "CumulativeGasUsed",
      "outputs": [
        {
          "internalType": "string",
          "name": "",
          "type": "string"
        }
      ],
      "stateMutability": "view",
      "type": "function",
      "constant": true
    },
    {
      "inputs": [],
      "name": "From",
      "outputs": [
        {
          "internalType": "string",
          "name": "",
          "type": "string"
        }
      ],
      "stateMutability": "view",
      "type": "function",
      "constant": true
    },
    {
      "inputs": [],
      "name": "Status",
      "outputs": [
        {
          "internalType": "string",
          "name": "",
          "type": "string"
        }
      ],
      "stateMutability": "view",
      "type": "function",
      "constant": true
    },
    {
      "inputs": [],
      "name": "To",
      "outputs": [
        {
          "internalType": "string",
          "name": "",
          "type": "string"
        }
      ],
      "stateMutability": "view",
      "type": "function",
      "constant": true
    },
    {
      "inputs": [],
      "name": "TransactionHash",
      "outputs": [
        {
          "internalType": "string",
          "name": "",
          "type": "string"
        }
      ],
      "stateMutability": "view",
      "type": "function",
      "constant": true
    },
    {
      "inputs": [
        {
          "internalType": "string",
          "name": "_From",
          "type": "string"
        },
        {
          "internalType": "string",
          "name": "_to",
          "type": "string"
        },
        {
          "internalType": "string",
          "name": "_BlockHash",
          "type": "string"
        },
        {
          "internalType": "string",
          "name": "_BlockNumber",
          "type": "string"
        },
        {
          "internalType": "string",
          "name": "_ContractAddress",
          "type": "string"
        },
        {
          "internalType": "string",
          "name": "_CumulativeGasUsed",
          "type": "string"
        },
        {
          "internalType": "string",
          "name": "_Status",
          "type": "string"
        },
        {
          "internalType": "string",
          "name": "_TransactionHash",
          "type": "string"
        }
      ],
      "name": "fechReciept",
      "outputs": [
        {
          "internalType": "string",
          "name": "",
          "type": "string"
        },
        {
          "internalType": "string",
          "name": "",
          "type": "string"
        },
        {
          "internalType": "string",
          "name": "",
          "type": "string"
        },
        {
          "internalType": "string",
          "name": "",
          "type": "string"
        },
        {
          "internalType": "string",
          "name": "",
          "type": "string"
        },
        {
          "internalType": "string",
          "name": "",
          "type": "string"
        },
        {
          "internalType": "string",
          "name": "",
          "type": "string"
        },
        {
          "internalType": "string",
          "name": "",
          "type": "string"
        }
      ],
      "stateMutability": "nonpayable",
      "type": "function"
    }
  ],
  "bytecode": "0x608060405234801561001057600080fd5b5061110f806100206000396000f3fe608060405234801561001057600080fd5b50600436106100935760003560e01c806366d11c1a1161006657806366d11c1a146101105780638d270ecb1461012e578063968ab7f914610165578063b21f1e1414610183578063b8fb6b9f146101a157610093565b806327053a401461009857806345f09ce9146100b65780634754f53d146100d457806364868510146100f2575b600080fd5b6100a06101bf565b6040516100ad9190610cc2565b60405180910390f35b6100be61024d565b6040516100cb9190610cc2565b60405180910390f35b6100dc6102db565b6040516100e99190610cc2565b60405180910390f35b6100fa610369565b6040516101079190610cc2565b60405180910390f35b6101186103f7565b6040516101259190610cc2565b60405180910390f35b61014860048036038101906101439190610e2d565b610485565b60405161015c989796959493929190610fc3565b60405180910390f35b61016d6109dc565b60405161017a9190610cc2565b60405180910390f35b61018b610a6a565b6040516101989190610cc2565b60405180910390f35b6101a9610af8565b6040516101b69190610cc2565b60405180910390f35b600080546101cc906110a8565b80601f01602080910402602001604051908101604052809291908181526020018280546101f8906110a8565b80156102455780601f1061021a57610100808354040283529160200191610245565b820191906000526020600020905b81548152906001019060200180831161022857829003601f168201915b505050505081565b6006805461025a906110a8565b80601f0160208091040260200160405190810160405280929190818152602001828054610286906110a8565b80156102d35780601f106102a8576101008083540402835291602001916102d3565b820191906000526020600020905b8154815290600101906020018083116102b657829003601f168201915b505050505081565b600780546102e8906110a8565b80601f0160208091040260200160405190810160405280929190818152602001828054610314906110a8565b80156103615780601f1061033657610100808354040283529160200191610361565b820191906000526020600020905b81548152906001019060200180831161034457829003601f168201915b505050505081565b60038054610376906110a8565b80601f01602080910402602001604051908101604052809291908181526020018280546103a2906110a8565b80156103ef5780601f106103c4576101008083540402835291602001916103ef565b820191906000526020600020905b8154815290600101906020018083116103d257829003601f168201915b505050505081565b60048054610404906110a8565b80601f0160208091040260200160405190810160405280929190818152602001828054610430906110a8565b801561047d5780601f106104525761010080835404028352916020019161047d565b820191906000526020600020905b81548152906001019060200180831161046057829003601f168201915b505050505081565b6060806060806060806060808f600090805190602001906104a7929190610b86565b508e600190805190602001906104be929190610b86565b508d600290805190602001906104d5929190610b86565b508c600390805190602001906104ec929190610b86565b508b60049080519060200190610503929190610b86565b508a6005908051906020019061051a929190610b86565b508960069080519060200190610531929190610b86565b508860079080519060200190610548929190610b86565b5060006001600260036004600560066007878054610565906110a8565b80601f0160208091040260200160405190810160405280929190818152602001828054610591906110a8565b80156105de5780601f106105b3576101008083540402835291602001916105de565b820191906000526020600020905b8154815290600101906020018083116105c157829003601f168201915b505050505097508680546105f1906110a8565b80601f016020809104026020016040519081016040528092919081815260200182805461061d906110a8565b801561066a5780601f1061063f5761010080835404028352916020019161066a565b820191906000526020600020905b81548152906001019060200180831161064d57829003601f168201915b5050505050965085805461067d906110a8565b80601f01602080910402602001604051908101604052809291908181526020018280546106a9906110a8565b80156106f65780601f106106cb576101008083540402835291602001916106f6565b820191906000526020600020905b8154815290600101906020018083116106d957829003601f168201915b50505050509550848054610709906110a8565b80601f0160208091040260200160405190810160405280929190818152602001828054610735906110a8565b80156107825780601f1061075757610100808354040283529160200191610782565b820191906000526020600020905b81548152906001019060200180831161076557829003601f168201915b50505050509450838054610795906110a8565b80601f01602080910402602001604051908101604052809291908181526020018280546107c1906110a8565b801561080e5780601f106107e35761010080835404028352916020019161080e565b820191906000526020600020905b8154815290600101906020018083116107f157829003601f168201915b50505050509350828054610821906110a8565b80601f016020809104026020016040519081016040528092919081815260200182805461084d906110a8565b801561089a5780601f1061086f5761010080835404028352916020019161089a565b820191906000526020600020905b81548152906001019060200180831161087d57829003601f168201915b505050505092508180546108ad906110a8565b80601f01602080910402602001604051908101604052809291908181526020018280546108d9906110a8565b80156109265780601f106108fb57610100808354040283529160200191610926565b820191906000526020600020905b81548152906001019060200180831161090957829003601f168201915b50505050509150808054610939906110a8565b80601f0160208091040260200160405190810160405280929190818152602001828054610965906110a8565b80156109b25780601f10610987576101008083540402835291602001916109b2565b820191906000526020600020905b81548152906001019060200180831161099557829003601f168201915b50505050509050975097509750975097509750975097509850985098509850985098509850989050565b600580546109e9906110a8565b80601f0160208091040260200160405190810160405280929190818152602001828054610a15906110a8565b8015610a625780601f10610a3757610100808354040283529160200191610a62565b820191906000526020600020905b815481529060010190602001808311610a4557829003601f168201915b505050505081565b60018054610a77906110a8565b80601f0160208091040260200160405190810160405280929190818152602001828054610aa3906110a8565b8015610af05780601f10610ac557610100808354040283529160200191610af0565b820191906000526020600020905b815481529060010190602001808311610ad357829003601f168201915b505050505081565b60028054610b05906110a8565b80601f0160208091040260200160405190810160405280929190818152602001828054610b31906110a8565b8015610b7e5780601f10610b5357610100808354040283529160200191610b7e565b820191906000526020600020905b815481529060010190602001808311610b6157829003601f168201915b505050505081565b828054610b92906110a8565b90600052602060002090601f016020900481019282610bb45760008555610bfb565b82601f10610bcd57805160ff1916838001178555610bfb565b82800160010185558215610bfb579182015b82811115610bfa578251825591602001919060010190610bdf565b5b509050610c089190610c0c565b5090565b5b80821115610c25576000816000905550600101610c0d565b5090565b600081519050919050565b600082825260208201905092915050565b60005b83811015610c63578082015181840152602081019050610c48565b83811115610c72576000848401525b50505050565b6000601f19601f8301169050919050565b6000610c9482610c29565b610c9e8185610c34565b9350610cae818560208601610c45565b610cb781610c78565b840191505092915050565b60006020820190508181036000830152610cdc8184610c89565b905092915050565b6000604051905090565b600080fd5b600080fd5b600080fd5b600080fd5b7f4e487b7100000000000000000000000000000000000000000000000000000000600052604160045260246000fd5b610d3a82610c78565b810181811067ffffffffffffffff82111715610d5957610d58610d02565b5b80604052505050565b6000610d6c610ce4565b9050610d788282610d31565b919050565b600067ffffffffffffffff821115610d9857610d97610d02565b5b610da182610c78565b9050602081019050919050565b82818337600083830152505050565b6000610dd0610dcb84610d7d565b610d62565b905082815260208101848484011115610dec57610deb610cfd565b5b610df7848285610dae565b509392505050565b600082601f830112610e1457610e13610cf8565b5b8135610e24848260208601610dbd565b91505092915050565b600080600080600080600080610100898b031215610e4e57610e4d610cee565b5b600089013567ffffffffffffffff811115610e6c57610e6b610cf3565b5b610e788b828c01610dff565b985050602089013567ffffffffffffffff811115610e9957610e98610cf3565b5b610ea58b828c01610dff565b975050604089013567ffffffffffffffff811115610ec657610ec5610cf3565b5b610ed28b828c01610dff565b965050606089013567ffffffffffffffff811115610ef357610ef2610cf3565b5b610eff8b828c01610dff565b955050608089013567ffffffffffffffff811115610f2057610f1f610cf3565b5b610f2c8b828c01610dff565b94505060a089013567ffffffffffffffff811115610f4d57610f4c610cf3565b5b610f598b828c01610dff565b93505060c089013567ffffffffffffffff811115610f7a57610f79610cf3565b5b610f868b828c01610dff565b92505060e089013567ffffffffffffffff811115610fa757610fa6610cf3565b5b610fb38b828c01610dff565b9150509295985092959890939650565b6000610100820190508181036000830152610fde818b610c89565b90508181036020830152610ff2818a610c89565b905081810360408301526110068189610c89565b9050818103606083015261101a8188610c89565b9050818103608083015261102e8187610c89565b905081810360a08301526110428186610c89565b905081810360c08301526110568185610c89565b905081810360e083015261106a8184610c89565b90509998505050505050505050565b7f4e487b7100000000000000000000000000000000000000000000000000000000600052602260045260246000fd5b600060028204905060018216806110c057607f821691505b6020821081036110d3576110d2611079565b5b5091905056fea2646970667358221220624ae9018564e1a47d54f53fecbd1e597275f0144d64c742e57605fc5a848d5e64736f6c634300080e0033",
  "immutableReferences": {},
  "source": "// SPDX-License-Identifier: MIT\r\npragma solidity ^0.8.0;\r\n\r\ncontract TransactionReciept{\r\n    string public From;\r\n    string public To;\r\n    string public BlockHash;\r\n    string public BlockNumber;\r\n    string public ContractAddress;\r\n    string public CumulativeGasUsed;\r\n    string public Status;\r\n    string public TransactionHash;\r\n\r\n    function fechReciept(string memory _From,string memory _to,string memory _BlockHash,\r\n    string memory _BlockNumber,string memory _ContractAddress,string memory _CumulativeGasUsed,string memory _Status,\r\n    string memory _TransactionHash)public returns(string memory, string memory,string memory,string memory,string memory,\r\n    string memory,string memory,string memory) {\r\n        From=_From;\r\n        To=_to;\r\n        BlockHash=_BlockHash;\r\n        BlockNumber=_BlockNumber;\r\n        ContractAddress=_ContractAddress;\r\n        CumulativeGasUsed=_CumulativeGasUsed;\r\n        Status=_Status;\r\n        TransactionHash=_TransactionHash;\r\n        return (From,To,BlockHash,BlockNumber,ContractAddress,CumulativeGasUsed,Status,TransactionHash);\r\n    }\r\n\r\n}\r\n// ganache: 0x4a419B15b691176ca0bE583cb19F8810e4F8e49f",
  "sourcePath": "D:\\TestToken\\truffle\\contracts\\TransactionReciept.sol",
  "compiler": {
    "name": "solc",
    "version": "0.8.14+commit.80d49f37.Emscripten.clang"
  },
  "schemaVersion": "3.4.11",
  "updatedAt": "2022-11-27T17:31:39.387Z",
  "networkType": "ethereum",
  "devdoc": {
    "kind": "dev",
    "methods": {},
    "version": 1
  },
  "userdoc": {
    "kind": "user",
    "methods": {},
    "version": 1
  }
}